:020000040800F2
:10000000002000108518030849C00208D98F000895
:1000100045C0020841C002083DC0020800000000BF
:1000200000000000000000000000000039C00208CD
:1000300035C002080000000031C00208EDA8000829
:10004000ED180308ED180308ED180308ED18030870
:10005000ED180308ED18030875BC0008A1BD0008E1
:1000600065BD000829BD0008EDBC0008D13A0008B4
:10007000C13A0008B13A0008A13A0008913A0008D4
:100080007D3A0008693A0008ED180308ED180308E6
:10009000C9C30208ED180308ED180308B1BC000835
:1000A00081990008E199000871990008099A0008EF
:1000B000D1990008C1990008B1990008ED1803080A
:1000C000ED180308ED180308ED180308ED180308F0
:1000D000ED18030819AA00089DA9000821A9000825
:1000E00039BC0008ED18030821C00208ED18030808
:1000F00091990008ED180308A1990008ED1803086C
:10010000000000000000000000000000ED180308DF
:10011000ED180308ED180308894C02086D4C02081D
:10012000553A0008413A00082D3A0008193A0008EB
:10013000053A0008ED180308000000000000000068
:10014000ED180308ED180308ED180308000000007F
:10015000000000000000000000000000000000009F
:100160000000000000000000ED180308ED1803086F
:10017000ED1803080000000000000000000000006F
:0801800000000000ED18030867
:100188002DE9F041846814B12568A4882C8541F0D4
:100198008001446840F2E93501E0002D5AD02689F3
:1001A800013D16F0020FADB2F7D0217304F10C0631
:1001B80040F2E93101E000295DD02589013915F0C7
:1001C800010F89B2F7D031784468A1894FF0000C4B
:1001D8004FF47A714FF6FF764FF0FF0E634502D168
:1001E80030E0B1421ED02589013915F0020589B2E7
:1001F800F7D084F80CE004F10C084FF47A7102E0AF
:10020800B9B2B1420ED0258915F0010501F1FF37C9
:10021800F6D098F80050EDB20AB1157001320CF121
:10022800010CDBE71C4B9C4204D0A3F578439C42AD
:1002380008D10125194B03EB05156B8901339BB2D6
:100248006B816B89836813B11A689B88936101205D
:10025800BDE8F08110498C4204D0A1F578418C4268
:10026800B3D101250D4901EB05156989013189B221
:1002780069816989A9E7084DAC4203D008498C42D5
:10028800A2D10121054C04EB01114C890134A4B21F
:100298004C814989446898E7003001406C6D002022
:1002A8000038004030B4836813B11C689B882385EC
:1002B800436840F2E93401E0002C37D01D89013C45
:1002C80015F0020FA4B2F7D0197303F10C0540F230
:1002D800E93101E000294BD01C89013914F0010FE4
:1002E80089B2F7D02B78436840F2E93101E0002960
:1002F8002DD01C89013914F0020F89B2F7D01A7376
:1003080003F10C0440F2E93201E0002A41D01989D6
:10031800013A11F0010F92B2F7D02378836813B134
:100328001A689B889361012030BC704721498B4231
:1003380004D0A1F578418B42D6D101241E4901EBA6
:1003480004146189013189B261816189CCE7194A54
:10035800934204D0A2F578429342DFD10121164B93
:1003680003EB01114B8901339BB24B814B89D5E7D4
:10037800104CA34203D011498B42B4D101210E4B3A
:1003880003EB01114B8901339BB24B814B894368C5
:10039800AAE708498B4203D0084A9342BED10122FA
:1003A800054B03EB0212538901339BB253815389E6
:1003B800B4E700BF003001406C6D002000380040F9
:1003C800002870B51EDB0928044620DD012303EB55
:1003D80083035B00B0FBF3F2092AF8D87BB10E4E19
:1003E800B4FBF3F00928CCBF57223022A6FB03E563
:1003F800024403FB1044EB0801F8012BF0D1002361
:100408000B7070BD2D230B7040420131DBE730309B
:1004180001F8010BF3E700BFCDCCCCCC884230B457
:100428004FF001042ED301FB04F4B0FBF4F58D4228
:10043800F9D284B1AAB901E0B0FBF4F5092DCCBF1B
:10044800572230222A4404FB150003F8012BB4FB81
:10045800F1F4002CF0D100221A7030BC7047B0FBC8
:10046800F4F5092DCCBF372230222A4404FB1500AD
:1004780003F8012BB4FBF1F4002CF0D100221A7020
:1004880030BC70470546002AEBD1D7E703685A1CF1
:1004980002601970704700BF2DE9F047089C257865
:1004A800002B804689460CBF4FF0200A4FF0300AD7
:1004B800661C35B3002A29DD334601E0024698B1AF
:1004C80013F8011B501E0029F8D1971E60B13D4654
:1004D800013D51464046C8476B1C002BF8DC257887
:1004E80027EAE770013055B1041B29464046C84742
:1004F800301916F8015B002DF7D1BDE8F087BDE88B
:10050800F087002A04DC2846BDE8F0870020EBE7E6
:10051800571EDCE783684268D0ED037A00EB83015D
:100528000133934281ED040A836004BF0023836092
:1005380000EB830393ED047A036870EE277A9A42FE
:10054800C0ED037A77EEC77AC0ED037A0CDA01338F
:1005580007EE103AF8EEC76AB7EE007A87EEA60AF9
:10056800036030EE070A704707EE102AB8EEC77A24
:1005780087EE870A704700BF90ED057A90ED004A34
:10058800D0ED066AD0ED014AD0ED047A90ED035A19
:10059800D0ED025AA4EE007AB0EE406AB0EE470AF7
:1005A800B0EE667AA6EE247A67EEC07AA0EE457AB7
:1005B800E6EE257A80ED057AC0ED067A704700BF31
:1005C800D0ED057A90ED013AD0ED003AD0ED064A2B
:1005D80090ED024A90ED077A90ED035A90ED086A83
:1005E800D0ED045AC0ED067AF0EE406A27EE830A91
:1005F800C0ED056AA3EEA60A80ED087AA4EE240AE7
:10060800A5EE470AA5EEC60A80ED070A704700BFA7
:10061800D0ED007A90ED017A30EE670AE7EE007AC5
:10062800B0EE670AC0ED007A704700BF704700BFA0
:100638000A44914214D030B40139551E41F22102C6
:1006480011F8014F082380EA042004044CBF82EA11
:1006580040004000013B80B2F7D18D42F0D130BC60
:10066800704700BFF0B540F6280340F62C0240F66C
:10067800360540F6210440F64D1140F66A1740F65B
:10068800E1060380428040F6791340F681124581E5
:10069800848140F6611540F6DA04C18140F63301E1
:1006A8000782468240F6F70740F6A7168382C28281
:1006B80040F6C71340F6E7120583448340F6411518
:1006C80040F65914818340F64911C783068440F6E1
:1006D8004C0740F601064384828440F6011340F635
:1006E8002112C584048540F6410540F62F14418542
:1006F80040F62E118785468640F60A1740F688167A
:100708008386C28640F6C80340F652020586C4872F
:1007180040F68A0540F63714818740F61711A0F88D
:10072800447006878380C380038140F6530CC285DA
:1007380014234FF0013E4FF0011745874FF0012673
:10074800A0F846200125A0F84040A0F842100B4C24
:100758000B49A0F848C02822C0F84AE0C0F84E70FB
:10076800C0F8526080F85B50C465C0F8561080F835
:10077800612080F85A3080F86030F0BD000A010A24
:10078800980864004FF480538382704750F8043C03
:10079800012280F84520103803B11847704700BF80
:1007A80070B5044682B00830656A06236A463B2164
:1007B800A847A8B19DF804009DF800609DF80110B5
:1007C8009DF802509DF803209DF8053041EA062166
:1007D80043EA002342EA0522E1822283638301205F
:1007E80002B070BD10B40268047B11680223A340F4
:1007F800194209D00649406800240C7001684FF678
:10080800FE742140016053605DF8044B704700BFDF
:100818003F6100202DE9F341056906460F467DBB7F
:10082800D0F80080C8F30A0323B30023D6F8008069
:10083800019322F09DFD042819D1224C236943F02D
:1008480001032361BBB2A8F8003022F091FD04280F
:100858002ED108F102030193019B3F0C1F8022F067
:1008680087FD2369042823F00103236125D06FF055
:10087800010505E022F07CFD042805D04FF0FF3586
:10088800284602B0BDE8F0810E4C236943F002030C
:100898002361C4F81480236943F04003236122F0E4
:1008A80067FD2369042823F002032361BDD0E5E72F
:1008B800236923F001032361D9E7336804333360E4
:1008C800DEE700BF00200240F8B504460D468E184A
:1008D8000027B54201D12069F8BDE368591CE160E1
:1008E800234415F8012B1A720429F2D1A168204675
:1008F800FFF790FFE7602061EBE700BF2DE9F041CB
:100908000446164D084616460F4630F0D9FA2A68AE
:10091800023011689072D4723B4610464F692246E5
:100928000221B84728680E4B0268C47215218172EB
:10093800576914212246B847304630F0C1FA296871
:1009480016300D688872CC7222466C6933460846A8
:10095800A4461621BDE8F041604700BFC02300202F
:10096800846C0308014B18680AF004B9C86C0020AD
:10097800F0B5044690F8590083B0002840F0A480F0
:10098800674E3779002F40D004F11405A0692FF085
:1009980085FA94F852201A212846FFF783FC012093
:1009A80009F0A8FEA0692FF067FA28460623E56D2E
:1009B8006A464321A847D8B19DF802609DF80330E4
:1009C8009DF800509DF801109DF804009DF8052041
:1009D80043EA06231BB2E3875BB241EA052142EAF8
:1009E80000220133A187A4F8402006D003B0F0BD4F
:1009F800B4F93E305BB20133F8D194F93C3001339D
:100A0800F4D1062009F0CCFBF0E704F11405A06945
:100A18002FF044FA80226B212846FFF743FC9620EA
:100A280009F0C2FE032268212846FFF73BFC962006
:100A380009F0BAFE03226B212846FFF733FC0F208A
:100A480009F058FE10226A212846FFF72BFC0F20D8
:100A580009F050FE3A466C212846FFF723FC0F2088
:100A680009F048FE94F8542019212846FFF71AFC8B
:100A78000F2009F03FFE18221B212846FFF712FC21
:100A88000F2009F037FE10221C212846FFF70AFC28
:100A98000F2009F02FFE102237212846FFF702FC0D
:100AA8000F2009F027FE012238212846FFF7FAFB1C
:100AB8000F2009F01FFEA0692FF0DEF9012009F0D0
:100AC80019FE0123337161E70AF0FCFB0546D8B132
:100AD800202300218371C1710AF08AFE2146114B3F
:100AE80041F8103F284624F009F9AB88B3FA83F39C
:100AF800C3F11F035A1C3FF443AF01229A400A492D
:100B08000B6813430B603BE701460AF071FE214670
:100B1800044B41F8103F284624F0F0F80122EEE794
:100B2800C0230020950700080004014070B582B07A
:100B380004466946143024F041F9B0B19DF8050027
:100B48009DF801609DF802109DF803509DF804205F
:100B58009DF8063041EA062143EA002342EA0522CD
:100B6800A187E287A4F84030012002B070BD00BF21
:100B780010B490E80600047B40690223A3404B6050
:100B880013685DF8044B4FF6FE710B40136009F0D3
:100B98007DBF08B50AF096FB40B12C228271002275
:100BA800C2712021BDE808400AF022BE08BD00BF7E
:100BB800F8B505015A4C5B4B625961199A4204EB2E
:100BC800050704BF01230B730646387A2EF0FCFD97
:100BD8003B7A03F01F015B090122022B02FA01F2A2
:100BE80078D0032B71D0012B67D06319013618799F
:100BF8000AF068FBF6B2074610B11223C67183717A
:100C0800631958790AF05EFB10B11323C67183711A
:100C1800631998790AF056FB10B11423C6718371D1
:100C280066190E21F27938460AF010FC70790AF03C
:100C380049FBF2790E210AF009FCB0790AF042FB6F
:100C4800F2790E210AF002FC6359374A934251D0D7
:100C5800344A934259D0354A934240D02C44227B9F
:100C6800002A2FD1012002249A8822F480521204EB
:100C7800120C9A80998889B241F4805199801A8817
:100C880002F4415242F44572024322431A809A8880
:100C980022F470621204120C42F4E0629A809A8B79
:100CA80022F400621204120C07219A8319821A880E
:100CB80092B242F040021A80F8BD1D4B996A0A436D
:100CC8009A6292E700200446CEE7194B19690A4355
:100CD8001A618AE7164BD9680A43DA6085E702F594
:100CE800EA32116941F400411161116921F40041AE
:100CF8001161B3E702F56042D16841F48051D160D7
:100D0800D16821F48051D160A8E702F5EC3211696D
:100D180041F480411161116921F4804111619DE71D
:100D28006C6D00200038004000300140003C00405D
:100D380000100240427A02B9704710B504460368B1
:100D4800406804F10A0198470023637210BD00BF90
:100D5800437A5A1C0344D2B242729972037A93427C
:100D680000D802B9704710B504460368406804F11A
:100D78000A0198470023637210BD00BF10B40B49E5
:100D8800002301E0272B0CD011F8132082424FEAF0
:100D9800430403F10103F5D121445DF8044B48787D
:100DA800704700205DF8044B704700BF14420308E9
:100DB80070B5448806460D46C4F30B04224600214C
:100DC800284633F06EF93369094A934209D3094A30
:100DD800934206D2224628461946BDE8704030F0B4
:100DE80095BE23B121462846BDE87040184770BD1E
:100DF80088AD030884AE0308064B07498B4202D32B
:100E08000023184670471A88C2F30B029042F8D0A4
:100E18001433F3E728A9030888AD0308024A1368C6
:100E280023EA000010607047F8340020F8B5174D29
:100E38002B78A42B28D16B78BE2B25D102222946EA
:100E48004FF6FF70FFF7F4FB114FAC1C22884AB134
:100E5800A618BE4218D2052A16D92146FFF7E8FB84
:100E68003446F3E721460222FFF7E2FB0222A118EB
:100E7800FFF7DEFB0634074B641B1C8041F60F535B
:100E8800C31A58425841F8BD0020F8BD00F00308C5
:100E980000000408702E00202DE9F04FDFF848917B
:100EA8004C4F8BB00326A7EB09071822002104A892
:100EB80033F0F7F8484BCDF8109005971A691206E9
:100EC80004D5464A5A6002F188325A6001228DF8E8
:100ED80024203422DA60424B424C1B88ADF80030A3
:100EE8000222694604A8FFF7EFFC022269464FF682
:100EF800FF70FFF79DFBDFF8F4A080464FF0000B72
:100F0800544536D30AAC002524F8245D0222214634
:100F180004A8FFF7D9FC022221464046FFF788FBC8
:100F280040BAC043ADF80800022202A904A8FFF79E
:100F3800CBFC079860B106ABC0F1040229461844FF
:100F480033F0AFF8069904A8FFF764FC07950890FA
:100F58009DF82430089A23B11F490B6943F0800398
:100F68000B61013E2DD0002A9FD1FFF75FFF50B3E0
:100F78002CE065888DF80DB0C5F30B05AB1DADF8F9
:100F880008302388C3F30B02ADF80A201B0B062296
:100F980002A904A88DF80C30FFF796FC062202A9D6
:100FA8004046FFF745FB616880462A4604A8FFF7DC
:100FB8008BFC616840462A46FFF73AFB14348046AA
:100FC8009EE7002AD1D0052009F0EAF80BB0BDE869
:100FD800F08F00BF0000040800200240230167458D
:100FE8006242030828A9030800F0030888AD030833
:100FF8000378202B024600F10100F9D0092BF7D025
:101008002D2B2CD02B2B03BF5378B7EE000A0246AA
:10101800B7EE000AA3F13001C8B209289FED467A5D
:1010280010D8F2EE046A07EE901AF8EEE77A12F892
:10103800013FE7EE267AA3F13001C8B20928B0EEE5
:10104800677AF0D92E2B4CD003F0DF03452B0BD059
:10105800F7EE007A67EE276A20EE260A7047537883
:10106800BFEE000A0246D5E710B451782D2959D0B1
:101078002B290ABF9178501C901C0024A1F1300341
:10108800092B53D8002303EB830301EB430310F828
:10109800011FA1F13002092AA3F13003F3D9B3F5F6
:1010A8009A7F28BF4FF49A73072B42D9DFED236A42
:1010B8001A46F7EE007A083A072A67EEA67AFAD8AF
:1010C80003F007032BB1F2EE046A013B67EEA67A40
:1010D800FBD124B3C7EE276A5DF8044B20EE260A3D
:1010E80070475378A3F13001C8B2092802F1010210
:1010F800AAD8F2EE046AF0EE665A07EE901AF8EEF5
:10110800E77A12F8013F87EEA66AA3F13001C8B268
:10111800092866EEA56A37EE067AEED994E767EEF7
:10112800276AD9E7901C91780124A7E7F7EE007A9F
:10113800CFE7F7EE007AC5E70000000020BCBE4C00
:10114800B5EEC00ADFED317AF1EE10FACCBF30EE21
:10115800270A30EE670ADFED2E7A20EE270A30B52F
:10116800FDEEC07A87B017EE904A054684EAE4702F
:10117800002303A9A0EBE47001930093029324F0E9
:101188008FF9002CACBF20232D2303A88DF8003045
:101198002FF096FE012803A924D002282DD0032879
:1011A80005BF3023684668468DF8013032F09FFF4E
:1011B80068462FF085FE0338C4B2224669462846A1
:1011C80032F0F3FF00232B5528462FF079FE2E220C
:1011D800431C2A540DEB0401E81832F0A5FF2846F9
:1011E80007B030BD302368468DF801308DF80230E5
:1011F8008DF8033032F07BFFDAE7302368468DF84C
:1012080001308DF8023032F072FFD1E76F12033AE5
:1012180000007A442DE9F041064615460846B6FB1B
:10122800F2F43CB905FB1464124B1B5D00F8013B5A
:10123800BDE8F081B4FBF2F767B90E4B05FB174721
:1012480005FB1464DA5D00F8012B1B5D00F8013B17
:10125800BDE8F081B7FBF2F8B8F1000F02D04046C4
:10126800FFF7D8FF05FB1878024B13F8082000F8A1
:10127800012BE3E7886C030830B402681146531C5D
:10128800036011F8024B0160D31C51780360937816
:10129800151D05601B0443EA0123D078234343EA64
:1012A800006030BC704700BF0368591C1A460160D3
:1012B80012F8021B0260587841EA0020704700BF0C
:1012C80003685A1C02601878704700BF38B5044696
:1012D8000068154630F01AFC22682A44226038BD9E
:1012E800036810B40A0E5C1C04601A7003680A0CC8
:1012F8005C1C04601A7003680A0A5C1C04601A709B
:1013080003685A1C026019705DF8044B704700BFEF
:10131800036810B40A0A5C1C04601A7003685A1C3B
:10132800026019705DF8044B704700BF03685A1CCF
:10133800026010B4197003680A0A5C1C04601A7011
:1013480003680A0C5C1C04601A700368090E5A1CB6
:10135800026019705DF8044B704700BF03685A1C9F
:10136800026019700368090A5A1C026019707047F4
:101378002DE9F047002488B080460F461E46A14656
:1013880005AD531C0393117839B3252933D1931C28
:10139800CDF810900393507830284ED04FF0000AC3
:1013A800A0F13003DBB2092B42D96C2819D064288C
:1013B80000F0938024D825281CD063D9582876D0EB
:1013C80063281BD131784046B847039A531C0393CE
:1013D8001178043601340029D7D1204608B0BDE879
:1013E800F087039B5A1C03921B78642B7CD02AD865
:1013F800252B54D1252140460134B847039AC0E72C
:10140800732833D044D975284FD106F1040E3068BB
:101418002B4600220A217646FFF700F8049A009529
:10142800534639464046FFF737F8039A0444A8E77D
:1014380004AA03A924F010F8B7E7D31C0393907803
:101448004FF0010AACE7732B10D05BD9752B3AD05B
:10145800782B96D1A3F15802B2FA82F23068520979
:101468002B4610210436FEF7D9FFD7E73368049AD4
:101478000093394600234046FFF70EF8043604442B
:10148800039A7EE70028B9D1204608B0BDE8F08766
:101498006E28B3D1039A336804361C6071E72AD9E1
:1014A800582BD7D0632B8DD06BE77828A6D1A0F125
:1014B8005802B2FA82F2306852092B461021FEF720
:1014C800ADFF0436AAE706F1040E30682B46002269
:1014D8000A217646FEF7A2FFA0E7331D30682946A9
:1014E8001E46FEF76DFF99E7331D306829461E46F4
:1014F800FEF766FF92E7002B7FF443AF204608B063
:10150800BDE8F0876E2BC6D03BE700BF0EB400B530
:1015180084B005AB019053F8042B0649039301A846
:10152800FFF726FF019B00221A7004B05DF804EB58
:1015380003B07047950400080FB430B583B006AB0C
:101548000A490B4853F8042B096800680193FFF710
:101558000FFF084C0546206809F0F8FA0028FAD071
:10156800284603B0BDE8304004B07047BC5700209F
:10157800C0570020C86C0020DFED2B7AB4EEE70AD4
:10158800F1EE10FA4ADDDFED296A9FED297A01E0D4
:10159800B0EE670AB4EEC70AF1EE10FA70EE667A9A
:1015A800F6DC9FED247AF4EEC77AF1EE10FA38D51E
:1015B800DFED1E6A9FED207A01E0F0EE407AF4EE4E
:1015C800C77AF1EE10FA37EEA60AF6D4DFED1B7AE9
:1015D800B4EEE70AF1EE10FA14DDDFED137A37EE18
:1015E800C00A60EE006A9FED166A9FED167ADFED7D
:1015F800167AA6EE867A20EE266AE6EE877AA6EEB8
:10160800270A7047DFED117AB4EEE70AF1EE10FA17
:1016180044BFDFED087A37EEC00AE2E7F0EE407A21
:10162800BFE7B0EE670AD1E7DB0F4940DB0FC940DF
:10163800E4CB1641DB0F49C0E4CB16C1DB0FC93F31
:1016480092E741B99730083C15A82ABEDB0FC9BFFD
:1016580009B909E0194690FBF1F301FB13030846A9
:10166800002BF7D1084670470146FBE7F0EEC07A39
:10167800B0EEE07AB4EEE77AF1EE10FAB4BFB0EE6D
:10168800676AB0EE476AB5EE406AF1EE10FA46D0E6
:10169800B4EEE77AF1EE10FA8CBFF0EE675AF0EE8E
:1016A800475AC5EE866A9FED1F3A9FED1F6A9FED68
:1016B8001F4A9FED1F5ADFED1F3ADFED1F4ADFED8E
:1016C8001F5AA6EEC36AE6EEA34AA6EE864AB7EE0E
:1016D800006AA6EE845AA6EEA46AE6EE855AC5EE1E
:1016E800866AB4EEE77AF1EE10FA48BFDFED147AB5
:1016F800F5EEC00A48BF77EEE66AF1EE10FA48BF89
:10170800DFED107AB5EEC00A48BF77EEE66AF1EE73
:1017180010FA48BFF1EE666AB0EE660A7047DFED70
:10172800076ADEE739094E3DE3B59E3E88FA163E64
:1017380045FE7F3F99FB243F69A2163EA7DFA834E8
:10174800DB0FC93FDB0F4940DFED317A30EE277AF6
:10175800FDEEC76A16EE903A2033402B02D99FED72
:101768002D0A7047B4EEE70AF1EE10FA4DDD9FED51
:101778002A6ADFED2A6A01E0B0EE677AB4EEE67A0B
:10178800F1EE10FA77EE467AF6DC9FED257AF4EE64
:10179800C77AF1EE10FA35D5DFED1F6A9FED217A91
:1017A80001E0F0EE407AF4EEC77AF1EE10FA37EE87
:1017B800A60AF6D4DFED167AB4EEE70AF1EE10FACF
:1017C8001BDCDFED197AB4EEE70AF1EE10FA44BF3C
:1017D800DFED137A37EEC00A60EE006A9FED136AF8
:1017E8009FED137ADFED137AA6EE867A20EE266A4D
:1017F800E6EE877AA6EE270A7047DFED0F7A37EE16
:10180800C00AE9E7B0EE670AD4E7F0EE477ABCE72A
:10181800DB0FC93F00000000DB0FC940E4CB1641D5
:10182800DB0F49C0E4CB16C1DB0FC9BF92E741B952
:101838009730083C15A82ABEDB0F494010B507EEC3
:10184800901A2DED028BB8EE678ADFED217A28EE2B
:10185800008A044628EE278AB0EE480A30F0ACFB2E
:10186800F0EE408AB0EE480A30F008FBF7EE007A56
:101878009FED187AF0EE675AE8EE875A0023A361C5
:10188800B0EE676AC7EEA56A63612362E361A8EEFA
:10189800C76ABDEC028B77EEC07AB6EE007AF8EE36
:1018A800005A27EE877A20EE250A27EE267A26EEBA
:1018B800266A67EEA67A20EE260A84ED046AC4ED4D
:1018C800017A84ED007A84ED027A84ED030A10BD72
:1018D80027D4D236F304353F10B44C09012250F80E
:1018E800243001F01F0102FA01F10B4340F82430C3
:1018F8005DF8044B704700BF4B0901F01F0150F819
:101908002320012303FA01F1114214BF18460020D5
:10191800704700BFBA4B33F81020110513D52DE9D5
:10192800F043B8490446400904F01F0551F8200067
:101938000121A940014291B006D0B349097819B1F3
:1019480011B0BDE8F083704702F01F07C2F34415D9
:10195800222CF5D8DFE814F062007400AF00C10053
:101968007601BA01BA01ED010E02BA042E025E0236
:10197800860492049C04A8047802880291029A02C0
:10198800AE02BB02DA020E030E037E03910391033B
:10199800B70318042504360447047A0423009B4B34
:1019A8009B4CB3F904309B489B49DFF8948284FB35
:1019B8000324DA17C2EBA4021623022412FB043212
:1019C80080FB02439C18D317C3EB64234FF4347491
:1019D80004FB132380FB03021A44DB17C3EB6213D7
:1019E80051FA83F308AE186859681C7A334603C362
:1019F80000221C708DF8292030462FF061FAD8F8A3
:101A080000403844A0722068E5722A46334645698A
:101A180039462046A84711B0BDE8F0837F4B80497E
:101A28001A88DFF81C82642303FB02F39B1208AEBA
:101A3800632BA8BF632330460122FFF767FDDBE76E
:101A4800784B794A1B781088022B00F09D84774BDD
:101A5800774C5A781978247802EB8202520000EB0E
:101A6800800301EB81015B0093FBF4F39B1AC3EB4A
:101A7800C303C2EB410293FBF2F3062BA8BF062374
:101A880023EAE373C3F19603DBB26A4A8DF8203088
:101A9800A2FB0032D20802EB8203A0EB43036649A3
:101AA80006209BB200900DF12100FFF72FFD08AE34
:101AB800DFF88C81A0E7DFF88881D8F80000036898
:101AC8001B69984710AEB0F5F07F5C4B46F8203D97
:101AD8000CBF072506250D278EE793F861204B4993
:101AE80093F86060B1F9000002EB820253005F4294
:101AF80006EB8606B8424FEA460603DB8342A8BFD8
:101B080003461F46B1F902307542AB4203DBB342CC
:101B1800A8BF33461D46DFF82881D8F800000368BF
:101B28001B699847B0F5F07F05EB850518BF0224BF
:101B3800BB0048BF3F3305EB850595FBF6F6293E0C
:101B4800C6EBA313512B40F2B38507EB4705002DD5
:101B58002B46B8BF05F13F03C6EBA313512B40F248
:101B68008A85ED1B002D2B46B8BF05F13F03C6EB58
:101B7800A313512B40F26285ED1B002D2B46B8BFF5
:101B880005F13F03C6EBA313512B40F23A85ED1B39
:101B9800002D2B46B8BF05F13F03C6EBA313512B0D
:101BA80040F21285ED1B002D2B46B8BF05F13F030F
:101BB800C6EBA313512B40F2EA84ED1B002D2B46F4
:101BC800B8BF05F13F03C6EBA313512B40F2C28403
:101BD800ED1B002D2B46B8BF05F13F03C6EBA31341
:101BE800512B40F29A84ED1B48BF3F35C6EBA51632
:101BF800512E40F228840420FFF78CFEA0E600BF97
:101C0800AC320020AC4800200000002048670020CB
:101C180067666666B7600BB6644203089061002089
:101C2800D06C0308986100206446002050670020AB
:101C38007A460020CDCCCCCCD86C0308267E270071
:101C4800C0230020DFF89C83D8F8000003681B69D4
:101C58009847B0F5F07F0CBF0727062707F1040661
:101C680014BF032404240825D8F800000368C472AC
:101C78008572D3F81890224613230721C847D8F84D
:101C8800000016220368C472827222460134D3F817
:101C9800189015211323E4B2C847A642E4D1D8F816
:101CA800000009220368C77282729C693A460323BE
:101CB8000821A047D8F8000015220368C77282726D
:101CC8009C693A4602231421A04739E603EB4403F2
:101CD800B3F8523013F00F0200F09E83022A8CBF33
:101CE80020219C21012AC3F303148DF8201000F051
:101CF8008F85C0F09683022A00F077850023DFF8ED
:101D0800E4821A461846012C40F07E83AE4EAF4C52
:101D1800AF49A6FB0060400BA4FB0064640964267D
:101D280006FB140000900DF12100FFF7EFFB08AE51
:101D380062E6A84B1B68DC0040F15A83A64B0322DD
:101D4800A6490988480500F1E682CE0700F14985D1
:101D580001F00201A24800291CBF03220346A14941
:101D680008683A4404688272C57239462A4664692A
:101D7800A047E5E59C4B1A78002A00F07D835C1E9D
:101D880003F10F080DF11F0966782FF09FFE30440C
:101D98003246437803F00303022B14F8013F08BFCF
:101DA800A6F1200209F8012F002B00F0E981A045D7
:101DB800EAD1E5E18D4E316800248DF80B408DF8AD
:101DC8000C40002900F04C850A689269002A00F04E
:101DD800298503A90DF10B00904731688DF814404F
:101DE80031B10B68D96919B105A888479DF8141055
:101DF8009DF80C407E489DF80B207E4B825C00913C
:101E080008AE53F824307C49DFF8D8813046FFF714
:101E18007DFBF1E5794B6D481B687949DFF8C48192
:101E280083EAE37EAEEBE37E80FB0E304FEAEE7290
:101E3800C2EB601208AE64209A2400FB12E30094FF
:101E48003046FFF763FBD7E56E4B6F4A18686F495A
:101E58008478037801944078009008AE3046FFF704
:101E680055FBDFF88081C7E5664B694A1868674902
:101E78004479C37801940079EEE7624B654A1868A3
:101E88006249047A83790194C079E5E7624A5B4B39
:101E980010881B68614A6249DFF8488103FB00F338
:101EA80082FB030208AEDB17C3EBA2123046FFF732
:101EB8002DFBA1E55B4A5C4953781278DFF8248151
:101EC80008AE013301323046FFF720FB94E50021CC
:101ED8004048FFF711FD002840F0DC82534B1B7887
:101EE80013F0020F524B1B7802D1002B00F0A48490
:101EF800012B00F00384022B40F0F28308AE304639
:101F08004C49DFF8E080FFF701FB75E5424B484A92
:101F18001B881278484903EB8303022A09784FEAA1
:101F2800430393FBF1F300F02D82444A5178127871
:101F380001EB8101490002EB82005A1AC2EBC2028E
:101F4800C1EB400192FBF1F2062AA8BF062222EA61
:101F5800E272C2F19602D2B21C488DF8202080FBB2
:101F68000320DA17C2EB601264243549062004FB0B
:101F7800123397E5334A344B3449DFF8688092E8E6
:101F88004100182C08BF064683FB06234FEAE67279
:101F9800C2EBA35203A814BF602364238DF820303A
:101FA800FFF7B4FA3246294905A8FFF7AFFA03A8A4
:101FB8002EF086FF05AB034403AA25490DF1210045
:101FC800FFF7A4FA08AE17E55917B7D11F85EB51EB
:101FD8002C6D0308803F0020B06C0308926100203C
:101FE800CC6C0308C023002074640020844F0020B8
:101FF800E85C0308F05C0308486D030830650020BE
:10200800E46C03087C330020546D0308586D030802
:10201800686D03086C6D030864460020D34D621098
:10202800706D03086C330020786D0308FC450020B0
:1020380098610020A06D03087A46002050670020B0
:10204800B86D03086C6700206BCA5F6B006D0308EE
:10205800046D0308CE48CF49B0F90230B0F900202A
:10206800B0F90640B0F90400009008AE019430467B
:10207800FFF74CFADFF87483BEE4C74BC748C8497A
:10208800DFF868831A2C0CBFB3F90220B3F90020DB
:1020980080FB0230D317C3EBA00404EB8400A2EB4F
:1020A800400383EAE370002AA0EBE37008AE84EAF9
:1020B800E4730090ACBF20222D22A3EBE4733046DA
:1020C800FFF724FA98E4B74BB74A1B899268B749D7
:1020D8009A1A9A42A8BF1A4622EAE27207EE902A92
:1020E800A1FB0313DB08B8EEE77A07EE903AF8EEA7
:1020F800E77AC7EE276A16EE900A2FF04DF841EC02
:10210800100B2FF0E1FD51EC100B2FF033FB8A235D
:10211800C0B28DF82030002840F02A818D238DF838
:1021280021308D238DF82230022800F2F7808D238C
:102138008DF823308D238DF824308D238DF82530AC
:102148008D238DF826308D238DF827308D238DF83B
:1021580028308D238DF829308D238DF82A308D2352
:102168008DF82B30431E8F22092B8DF82C2004D894
:1021780010AB18448E2300F81F3C00238DF82D3037
:1021880008AEDFF8688237E4894B1B78DB073FF538
:10219800D7AB08AE30468749DFF85082FFF7B6F96B
:1021A8002AE4854B1B7803F00303032B00F0CC8251
:1021B8002D238DF8203000238DF8213008AEDFF86C
:1021C8002C8219E47C4A127802F00302032A00F0F8
:1021D800EE822D2200238DF820208DF8213008AEC4
:1021E800DFF8088208E46C4B6C4AB3F90430734892
:1021F8007349DFF8F88182FB0342DB17C3EBA203C4
:102208001BB2162404EB430480FB04621619E21780
:10221800C2EB66224FF4347606FB124280FB024082
:102228001044D217C2EB6012D2B2C2F11802504267
:1022380000F00F0002F00F0258BF4242603208AEB1
:10224800D2B23046FFF762F9FFF7D6BB08AE0023DB
:102258003046009368225B49DFF89081FFF756F912
:10226800FFF7CABB504B58499A68DFF8808108AE1F
:1022780030460723FFF74AF9FFF7BEBB534B544AD2
:10228800DB895449DFF8648103EBC3039B0007E64D
:102298004E4B51491B7DDFF8548108AE30461F2252
:1022A800FFF734F9FFF7A8BB93F85B304B49DFF829
:1022B8003C81002B0CBF0F220C2208AE0023009299
:1022C80030461A46FFF722F9FFF796BB444B334ACC
:1022D800B3F906304349DFF81481B3F5FA6FA8BFA4
:1022E8004FF4FA63B3F57A7FB8BF4FF47A73A3F566
:1022F8007A7382FB0302DB17C3EBA20204240523D3
:102308000DF122008DF820408DF8213008AEFFF73E
:10231800FDF8FFF771BB0422334B20E58B2303281C
:102328008DF823307FF606AF04288DF824307FF629
:1023380004AF05288DF825307FF602AF06288DF802
:1023480026307FF600AF07288DF827307FF6FEAEDF
:1023580008288DF828307FF6FCAE09288DF829303A
:102368007FF6FAAE0A288DF82A303FF6F9AEF6E67F
:102378008B2301288DF8213018BF8DF822307FF487
:10238800D3AECEE69722E7E59723FFF77EBB00BFE3
:10239800B03F0020C46D0308486700206766666682
:1023A800D86D03085067002030650020A38B2EBA33
:1023B800FC450020E46D030868670020B7600BB691
:1023C800F06D0308F86D0308F06C03086C670020D3
:1023D800D34D6210F86C0308D06C0308146D030821
:1023E80068610020006D0308BC6C0308C02300204E
:1023F800C74AC8491268C84B02F48002002A0ABFBB
:102408000B46032204229BE4C4490DF12100FFF787
:102418007DF808AEFFF7F0BA9B22C3F303148DF8DA
:10242800202008F01BF9BE4BBE4ADFF81883A3FB37
:1024380000139B0C82FB03121A445211C2EB0211C7
:10244800A3EB81035FE4B84AD8F8000082FB0632A8
:10245800F317C3EB6203E21803EBC3031324D2B2EE
:10246800F61A0168C272A6F1800384728C69DBB225
:102478001221A047FFF7BFBBAC4BDFF8C88293E837
:10248800070008AE334603C323F8022B120C1A7058
:10249800FFF7B2BAA64B1B88002B3FF41FADDC0731
:1024A80000F1E481C3F340025ABB580700F1F681FA
:1024B800190700F1F181DA0600F1EC819E0600F1BE
:1024C800E7815C0600F1E281180600F1DD81D9059B
:1024D80000F1D8819A0500F1D3815E0500F1CE8123
:1024E8001C0500F1C981D80400F1C481990400F1E8
:1024F800BF815A0400F1B881DB0B18BF0F223FF4EB
:102508003FAE8C4B8C4953F82220DFF8388208AE56
:102518003046FEF7FBFFFFF76FBA8349D8F8000093
:1025280081FB0321DA17C2EB610204EB020E02EB16
:10253800C2015B1A5FFA8EF20168C2724FF0120E86
:1025480080F80AE0803BD1F81890DBB21121C84727
:10255800FFF749BB7449D8F8000081FB0321DA175B
:10256800C2EB610204EB020E02EBC2015B1A5FFAD6
:102578008EF20168C2724FF0110E80F80AE0803BBB
:10258800D1F81890DBB21021C847FFF721BB664984
:10259800D8F8000081FB0321DA17C2EB610204EBD3
:1025A800020E02EBC2015B1A5FFA8EF20168C27278
:1025B8004FF0100E80F80AE0803BD1F81890DBB29B
:1025C8000F21C847FFF7F9BA5749D8F8000081FB2F
:1025D8000321DA17C2EB610204EB020E02EBC2011F
:1025E8005B1A5FFA8EF20168C2724FF00F0E80F824
:1025F8000AE0803BD1F81890DBB20E21C847FFF7FC
:10260800D1BA4949D8F8000081FB0321DA17C2EB97
:10261800610204EB020E02EBC2015B1A5FFA8EF252
:102628000168C2724FF00E0E80F80AE0803BD1F8C4
:102638001890DBB20D21C847FFF7A9BA3A49D8F874
:10264800000081FB0321DA17C2EB610204EB020EE2
:1026580002EBC2015B1A5FFA8EF20168C2724FF098
:102668000D0E80F80AE0803BD1F81890DBB20C21FF
:10267800C847FFF781BA2C49D8F8000081FB03212D
:10268800DA17C2EB610204EB020E02EBC2015B1A1D
:102698005FFA8EF20168C2724FF00C0E80F80AE001
:1026A800803BD1F81890DBB20B21C847FFF759BA25
:1026B8001D49D8F8000081FB0321DA17C2EB61023B
:1026C800A51802EBC2015B1AEAB20168C2720B25B7
:1026D800803B85728D69DBB20A21A847FFF735BABE
:1026E800DFF8608098F81C30002B3FF429A908AE69
:1026F80030461249FEF70AFFFFF77EB908AE3046AA
:102708000F49DFF84080FEF701FFFFF775B900BFFA
:10271800B85A0020B46C0308B06C0308206D030895
:1027280083DE1B4389888888398EE3383C6D03082B
:10273800C0610020F4570308806D0308AC6D0308DE
:10274800946D0308C0230020554B1B88002B6FD0C5
:10275800544B5548B3F90430544A5549B2F900204E
:1027680080FB0340DB17C3EBA0031BB2D21A520055
:10277800163281FB02039818D317C3EB60234FF47A
:10278800347000FB132381FB03121A44DB17C3EBDD
:102798006213DBB2C3F118035A4202F00F0203F0CE
:1027A8000F0358BF534260338DF8203003E53C4A8D
:1027B80093F85B301288002B38D14FF4A4733D494D
:1027C80003FB02F281FB0213D217C2EB63120F2341
:1027D80008AE30463849DFF80081FEF797FEFFF76C
:1027E8000BB9364B0422FFF7BABADFF8EC8034494C
:1027F800D8F81800334AA1FB0031890C82FB01325A
:102808000A445211C2EB0213A1EB8303FFF77BBA10
:10281800DFF8C4802A4BD8F808002A4AA3FB001323
:10282800990CEBE78DF81420FFF7DBBA0C23CFE700
:1028380005238DF82030BEE4234A244B2449927B9B
:102848001B88097893FBF1F39A427FF649AF08AEEB
:1028580030462049DFF88080FEF758FEFFF7CCB8F5
:102868008DF81410FFF7C4BA0E224AE6002248E693
:102878000D2246E60C2244E60B2242E60A2240E6F6
:1028880009223EE608223CE607223AE6062238E616
:10289800052236E6042234E6032232E6022230E636
:1028A8005C4F002048670020676666665E4F002020
:1028B800B7600BB61F85EB510C6D0308C46C030899
:1028C80083DE1B438988888850670020644600207F
:1028D8007A460020846D0308C02300202DE9F04FBC
:1028E800744B754C1B788DB005460BB101232377CB
:1028F800226A724BA3FB02139B0803EB8303511C50
:10290800D31A216240F0BA80DFF8E8B194F82410B5
:102918009BF8007007F00107B94200F09481002F7E
:1029280040F0F080D4F80080654ED8F8003040467A
:102938009B6898472068FF2388F80D3001220368B8
:1029480088F80C20112102228172C272D3F81480F7
:102958005C4B1146C04796F85230002B40F061831B
:1029680009230693082305930623049305234FF0B0
:102978000A084FF0070A03934FF00409032796F853
:102988005330002B40F0FD8296F84A30DFF868811A
:1029980023B198F80030980700F15B8496F854301A
:1029A800CBB196F85B30B4F91620002B00F0C98340
:1029B8000C23454909A8FEF7A9FD384609AA434949
:1029C800FDF79CFF049BCDF810A0DDF814A04F463E
:1029D800DDF80C90039396F84B30002B40F08E8373
:1029E80096F85130DFF814A1002B40F0698396F86F
:1029F8004C30002B40F07382354B9B79002B40F014
:102A08001C82DFF8FC9096F84F30002B40F07E8255
:102A180096F85030CBB12F4B9B7843B3032B26D07D
:102A2800022B00F052840022114609ABB2FBF1F2EE
:102A3800184692B228490793FEF768FD7B1C384672
:102A4800079A2649DFB2FDF759FF96F8553073B15A
:102A5800204B9B785BB1032B09D0214B09A918693E
:102A680022F01EFD09AA38461E49FDF747FF1E4AF7
:102A78001E4E2A4400233260A3616AE0206803687E
:102A8800DB689847236863B193F90E30002B08DDA3
:102A9800174A138843F480439BB213800DB0BDE8F6
:102AA800F08F134A138823F480439BB213800DB030
:102AB800BDE8F08F40610020C0230020CDCCCCCCF5
:102AC800AC3200200C6E03080C6D0308286E030856
:102AD80050670020CA340020B06E0308986E0308BF
:102AE800E0340020A46E030800879303B448002054
:102AF800C0610020FC450020686700206446002073
:102B080030650020266863613068A3614FF0FA7170
:102B18004FF4C6028368E160304622619847206816
:102B2800DFF89083DFF890A3DFF89093FF237373A7
:102B3800012203683273112107228172C2725F6910
:102B4800CB4BCC4E0C21B84705F5F42202F5907218
:102B580032609BF8001001F0010184F82410C64B84
:102B6800DFF85CE3DB89C54803EBC3039B008EFBFE
:102B780003CEDB170788B4F90C00C3EBAE131BB206
:102B88009842B8BFA381B4F90E00BAF80030984251
:102B9800C8BFE381BA48D9F800304FF0640E80FB13
:102BA80003C0DB170EFB07F7C3EB6013B4F910E0A3
:102BB8001BB29E45B8BF2382B4F91230C7F38727EA
:102BC800BB42B4F91430C8BF6782002BBCBF0023D6
:102BD800A38298F8003084F8257003F00303032BD0
:102BE80029D039B1A36AA068A169EB1A18440B442B
:102BF800A060A361A5626AB1AA1A002A2CDB276823
:102C08003B6838469B6898470121FF2200233973A7
:102C18007A7333609B499C4A2368AD09A1FB05156B
:102C2800C5F38015157053B393F90E20002A26DDDD
:102C38000022227727E7954BB4F916001B889842A3
:102C4800B8BFE382CDE78B4EDFF868823268DFF8E1
:102C580068A2DFF8689282E78D4AB2F9061040F25E
:102C6800D663994203DCB2F902209A4201DD0023BF
:102C78003360206803681B6A98472368D8E7854E45
:102C880094F8253096F85A209A4240F22381824DD2
:102C98002B6843F00103814A1278002A40F015811D
:102CA80023F4C00323F0020398F80020910700F1F1
:102CB800098143F48043B6F85C702B6007F00F027B
:102CC800012A00F08D82C0F08782022A00F0468235
:102CD8000020734A3F0A02FB07F7002F00F06E82BC
:102CE800874200F26B8243F02003B6F85E702B60D7
:102CF80007F00F02012A00F06782C0F06982022AF9
:102D080040F06482A069664A3F0A02FB07F7002F79
:102D180000F05182874200F24E8243F04003D9F816
:102D28000820B6F856109142B6F85820D4BF43F0A0
:102D3800102323F01023002A00F0438223F40043D9
:102D480026682B60336830469B6898470122FF232A
:102D58003273737313215348FEF7CEFD002888D1D0
:102D6800514D2B689A0700F199820120FEF7D2FD98
:102D78000020FEF7CFFD0220FEF7CCFD0520FEF770
:102D8800C9FD0620FEF7C6FD0720FEF7C3FD092092
:102D9800FEF7C0FD0A20FEF7BDFD0B20FEF7BAFDC9
:102DA8000C20FEF7B7FD0820FEF7B4FD0F20FEF754
:102DB800B1FD1020FEF7AEFD1120FEF7ABFD12208D
:102DC800FEF7A8FD1320FEF7A5FD1420FEF7A2FDCF
:102DD8001520FEF79FFD1620FEF79CFD1920FEF733
:102DE80099FD1A20FEF796FD1B20FEF793FD1C2087
:102DF800FEF790FD1D20FEF78DFD2020FEF78AFDD1
:102E08002120FEF787FD2220FEF784FD2B689B0614
:102E18007FF52FAF0E20FEF77DFD0D20FEF77AFD22
:102E28001820FEF777FD1720FEF774FD1F20FEF728
:102E380071FD1E20FEF76EFD1BE796F84D30002B46
:102E480040F0F28196F84E30DFF87090002B3FF496
:102E5800DAADD9F80820154909A80723FEF756FB6B
:102E68007B1C384609AA1249DFB2FDF747FDCAE5BF
:102E7800046E0308B44800206C67002090610020AD
:102E88001F85EB51632D3E05000000205C4F00209C
:102E980068610020AC320020AC4800209861002016
:102EA80000879303803F0020646700200C6D0308AF
:102EB800706E0308686700206446002030650020B3
:102EC800D34D621023F48043F5E643F4C00343F086
:102ED8000203E9E6C34D2B6823F00103DBE609AAE8
:102EE8001146B4F91200049222F0DAFA049A104654
:102EF8002DF0E6FFBC4B049A1B881352BB49384699
:102F0800FDF7FCFC4F46DDF80C9075E596F85B1074
:102F1800B4F914E0002940F023810EEB8E000EEB8B
:102F2800C00EB34AB34B4FEACE004FEAE07E82FBB5
:102F380000C2CEEB2232002A83FB00C0B8BF524247
:102F4800DEEB601E00F1AE8183FB0E314FEAEE73BB
:102F5800C3EB61136420A84900FB13E381FB030161
:102F6800DB17C3EBA1030F21009109A8A349FEF7C2
:102F7800CDFA7B1C384609AAA149DFB2FDF7BEFC91
:102F880046E5B6F85E3003F00F02012AC3F30313D7
:102F9800079300F00B81C0F09481022A40F08D81E4
:102FA800D4F818E0974B984AA3FB0E139B0C82FBAE
:102FB80003121A445211C2EB0211A3EB81030799C1
:102FC800012940F05D81DFF85CC28A488F49ACFB7B
:102FD8000ECE4FEA5E3EA0FB0EC040094FF0640CD7
:102FE8000CFB10EECDF800E009A80790FEF78EFA6A
:102FF800B6F85E308649079A03F00F03384651F851
:103008002310FDF77BFC049BCDF810A04F46DDF89C
:103018000C900393069BDDF814A0CDF81880059357
:10302800B2E4B6F85C3003F00F02012AC3F30318C8
:1030380000F0BF80C0F03E81022A40F03781A069CD
:10304800704B714AA3FB00139B0C82FB03121A44BA
:103058005211C2EB0217A3EB8703B8F1010F40F03E
:103068001681DFF8C0E1634F6849AEFB00E0400B12
:10307800A7FB00E77F094FF0640E0EFB170009AFAE
:10308800009038460797FEF741FAB6F85C30604979
:10309800079A03F00F03032051F82310FDF72EFCC5
:1030A8000A230693092305930723049306234FF065
:1030B8000B084FF0080A03934FF0050904275EE454
:1030C800BAF80030534A5449A2FB0302D20802EB73
:1030D80082004FF0060EA3EB40039BB2CDF800E050
:1030E80009A8FEF713FA384609AA4C49FDF706FC69
:1030F800049B4F46DDF80C90039378E4B4F90E3046
:103108003D4A454982FB0302D817C0EBA20202EBF5
:1031180082004FF0060EA3EB40031BB212B2CDF8AB
:1031280000E009A8FEF7F2F9384609AA3C49FDF77C
:10313800E5FB049BCDF810A04F46DDF80C900393F7
:103148004EE402EB820302EBC3022A49D30081FB5F
:103158000321DA17C2EB61120F232AE4A069B8E54C
:10316800244A4FEAEE7382FB0E02C3EB6212002A76
:10317800B8BF5242BEF1000FC0F29680DFF874C0AB
:103188008CFB0E0CC3EB6C131B484FF0640C0CFB50
:1031980013E380FB03E0DB17C3EBA003002BB8BFEE
:1031A8005B4200290CBF0F210C21DDE6D4F808E0B2
:1031B800F8E6A06844E723F04003B0E523F02003D5
:1031C80093E543F40043BBE5A0689CE500209AE53D
:1031D80007F044FA2B6896E507F040FA2B6878E583
:1031E800A06876E5AC480020506E0308546E0308CA
:1031F800AD8BDB681F85EB51676666667C6E0308DE
:10320800886E030883DE1B43898888882C6D030831
:10321800585A0308CDCCCCCCD86C0308446E0308AC
:10322800386E03085917B7D109AA1146B4F9100026
:10323800039222F035F9039A10462DF041FE364BE1
:10324800039A1B88135235493846FDF757FB4F46FA
:10325800F8E509A9B4F90C0022F022F9384609AAC0
:103268002F49FDF74BFB049BCDF810A04F46DDF826
:103278000C900393069BDDF814A00593FFF78EBB13
:1032880009A9079108462749FEF740F9B0E609A9B8
:10329800079108462349FEF739F9F6E60320FEF7B9
:1032A80039FB62E54FEAEE73524267E73B463A461E
:1032B8003846D2E607F0D2F9C2E600231A469E46FF
:1032C8007DE607F0CBF986466CE6174B186808F0E0
:1032D800A5FC38B109AB184614490793FEF716F94F
:1032E800FFF7ACBB124B93F82420002AF2D0114A06
:1032F80051780329EED141F27810996A0E4B125891
:10330800A3FB0101C909A3FB0232A1EB124264230A
:1033180003FB02F2FFF789BB606E0308646E0308C3
:103328001C6E0308206D030824640020B86E03088F
:10333800B48D002004790020D34D62102DE9F043AC
:10334800314A324E13683060042B89B004D0304CB7
:10335800591C44F8230011602E4B2F4A1B7800217A
:1033680003F001031160516086F82430012708F04A
:1033780079FDA0230424FDB203E00134E4B21C2C3F
:1033880013D0FF2BF9DC306802688472C572611EA5
:103398000134D2F8188003F10109C9B2DBB22A4618
:1033A800E4B2C0471C2C4B46EBD10137052FE1D1C5
:1033B80068461A4A1A49FEF7A9F86B4606221421EC
:1033C800306808F02BFD174B30680822072108F0F9
:1033D80025FD154B306809220B2108F01FFD0A2234
:1033E8000B21124B306808F019FD306803685B6ADE
:1033F800984707F033F90E4B00F5741000F510608C
:10340800186009B0BDE8F08370350020C0230020A3
:1034180074350020FC450020AC480020C06E03082D
:10342800C86E0308CC6E0308DC6E0308E86E030858
:10343800B44800202DE9F84FDFF8B480DFF8B4A0D5
:10344800DFF8B490274E0123042088F800302CF0D0
:1034580039FDDAF8000008F087FB05202CF06AFC3B
:1034680000202CF067FC06202CF064FC00202CF0D7
:1034780061FC99F80040042044F001042CF05AFC47
:1034880020462CF057FC33888BB1174D174F00247A
:1034980015F804B007202CF04DFC58462CF04AFCD7
:1034A8002A5D33883A550134A4B2A342F0D80720E4
:1034B8002CF040FCFF202CF03DFC99F80040042043
:1034C8002CF038FC20462CF035FCDAF8000008F027
:1034D80051FB02202CF0F6FC002388F80030BDE8F0
:1034E800F88F00BF041D0020A4460020D44A002005
:1034F800BC4A002044580020C54A00202DE9F0416C
:103508004A4E04202CF0DEFC306808F02DFB484BB6
:103518001B78012B7BD062D3022B0AD1DFF83081D4
:10352800082388F800300D254FF4C373414F3B80C2
:1035380010E0DFF81C813F4F98F8003003F040039B
:10354800002B14BF4FF4F0734FF4C3733B8014BFC8
:1035580010250D25002404F11000C0B22CF0EAFB60
:10356800013401202CF0E6FBA3B2AB42F3D398F868
:103578000040314D00202CF0DDFB20462CF0DAFB1A
:103588002E4B1C7802202CF0D5FB20462CF0D2FBC9
:103598002B4B1C7803202CF0CDFB20462CF0CAFBCB
:1035A800284B1C78042004432CF0C4FB20462CF044
:1035B800C1FB306808F0DEFA02202CF083FC3A8860
:1035C8002148002130F06DFD6B7833B11F4B1B781B
:1035D80033B300236B70BDE8F081BDE8F081A02013
:1035E8002CF0A8FB00202CF0A5FB00F00603022B12
:1035F800DFF85C8007D000F00500012803D14823DC
:1036080088F8003008E0082388F800308BE7DFF8F6
:103618004080482388F8003010254FF4F07385E780
:10362800FFF708FF00236B70BDE8F08144580020C5
:1036380048580020041D0020000000204F5800209A
:1036480050580020C54A0020D44A0020BC4A002017
:10365800061D0020F0B55B4B5B4A97B01968914294
:1036680000AF00F0A3805949594A00234FF4700075
:10367800C1F888003B607B60136843F480331360B3
:1036880003E03B68B3F5A04F09D0136803F4003397
:103698007B603B6801333B607B68002BF1D04C4B6F
:1036A8001B6813F4003318BF01237B607B68012B70
:1036B80052D0464C464B474AE260474A596A116025
:1036C8005A6A42F080725A625A6942F4FC025A619C
:1036D8000025032207F10801012341F6FF764FF088
:1036E8009040FD60BE603A73BB731AF0D1FD4FF68F
:1036F800FF7307F108013948BB601AF0C9FD07F1EB
:1037080008013748374E1AF0C3FD07F1080136485B
:103718001AF0BEFD07F1080134481AF0B9FD07F1A7
:10372800080133481AF0B4FD07F108001AF009FE41
:10373800BB683049304AA1FB031330499B0CF02089
:103748004FF0070E5C370B60566084F823009560D5
:10375800C2F800E0BD46F0BD294A1D4B1221116098
:103768005A685A605A685A605A6842F480625A60C5
:103778005A6822F47C125A605A6842F4E8125A6075
:103788001A6842F080721A601A689201FCD559686A
:103798000F4A21F003015960596841F0020159604C
:1037A800536803F00C03082BFAD182E700221A6051
:1037B80062B6144B1B6883F30888134B1B68984741
:1037C800FEE700BFFC9F0020EFBEADDE00ED00E08D
:1037D800001002400005FA055C5D00200004004866
:1037E800000800483F190100000C0048001000487C
:1037F8000014004883DE1B4310E000E0F05E002068
:103808000020024000D8FF1F04D8FF1F064A0023EB
:103818005168814202F11C0204D001330C2BF7D10C
:1038280000207047D8B27047F4160020074BC0EB51
:10383800C00030B403EB8000054C056963692B4375
:1038480063610176427630BC704700BFF4160020F1
:10385800001002402DE9F04F634C54F8204083B02B
:10386800002C7CD0656D1F466B68E364A1604FF443
:10387800807304F15A019046064604F5AD725B4820
:1038880020606161A261E3602361287E2BF09CFFC8
:10389800E86858B1FFF7BAFF721CD2B20C21FFF7E3
:1038A800C5FFE36CEA6822632433A364A86870B395
:1038B800FFF7ACFF721CD2B20B218146FFF7B6FFAF
:1038C8004B48DFF830E1EB7EDEF81410C9EBC9098C
:1038D80000EB89009B0902690A43CEF81420DFF83F
:1038E80018E1417B446100228DF80530C0F808E0FA
:1038F800012301A88DF806208DF807308DF80410F3
:103908001AF0BCFBE36CAA6862632833636494F81A
:10391800590007F0D7FC814694F8580007F0D2FC0C
:103928003A07824695F819B01DD5B9F1000F1AD09B
:1039380017F0110F4FF00B0306F1010614BF4E21CB
:103948003E2189F8063089F807605A46484607F04C
:103958007DFDFB0743D5236B6BB3636B5BB32046DD
:1039680003B0BDE8F08F17F0010F0CBF2E274E27CC
:1039780018F0020F0DD0B9F1000F0AD00B22731CFA
:1039880089F8062089F8073048465A46394607F02C
:103998005DFD18F0010FDED0BAF1000FDBD0013663
:1039A8000C238AF807605A4639468AF8063050468A
:1039B80007F04CFDCFE7AB7E8DF804302B7F00215C
:1039C8009B09012201A88DF805308DF806108DF8A5
:1039D80007201AF053FB204603B0BDE8F08F484695
:1039E80008F0C2F8B7E700BFC85700207C420308B8
:1039F800F416002000100240790B00080348D0F8A4
:103A08003C3113B100F59A7018477047F41600203E
:103A18000348D0F8203113B100F58C70184770476F
:103A2800F41600200348D0F804310BB1FC301847D5
:103A3800704700BFF41600200348D0F8E8300BB1F7
:103A4800E0301847704700BFF41600200348D0F84C
:103A5800CC300BB1C4301847704700BFF4160020B3
:103A68000348D0F8B0300BB1A8301847704700BFF2
:103A7800F41600200348D0F894300BB18C30184766
:103A8800704700BFF41600200248836F0BB17030F6
:103A980018477047F41600200248C36D0BB1543024
:103AA80018477047F41600200248036C0BB13830F1
:103AB80018477047F41600200248436A0BB11C30BF
:103AC80018477047F41600200248836803B1184766
:103AD800704700BFF41600201749184B184A1948B8
:103AE80010B4D1F8884044F47004C1F888401C68C8
:103AF80044F001041C605C6822405A601A6822F095
:103B0800847222F480321A601A6822F480221A60C1
:103B18005A6822F4FE025A60DA6A22F00F02DA6268
:103B28001A6B002410404FF0006218639C608A6092
:103B38005DF8044B704700BF00ED00E00010024044
:103B48000CC07FF8CCFC00FF2DE9F04F2DED028B67
:103B580093B0834623F0DCF8914B1D7825B113B060
:103B6800BDEC028BBDE8F08F8E4B1B685905F6D56E
:103B78008D4B8E4E1B6863B18D4A31681368CB1A22
:103B88007C2B06D98B48116003780133037027F02A
:103B9800CDFD894B1B78002B72D0884C884AD4F80D
:103BA8001031ABEB0303934201F2548394F818915C
:103BB800B9F1000F35D1DFF83C82D8F8000006F0E3
:103BC800D5FFC0B201280FD902287E4F42F0668087
:103BD8003B78002B42F0B181D4F81C31ABEB0303E6
:103BE800B3F57A6F82F0EF82D4F82031002B47D0FA
:103BF80094F81831C3B9744B1B689B7801211E3B9C
:103C080000228B4284F8181184F82C2142F2968203
:103C1800D8F800000221043027F03AFD94F8243146
:103C280011E0D4F820315BB3D4F8283140F6B7322C
:103C3800ABEB0303934223D994F82431002B01F012
:103C4800F986DFF8B081013BDBB284F82431002B20
:103C580001F02684D4F8207194F82C2117F8011B60
:103C680094F82D31D8F80000C4F820710A440133C3
:103C780084F82C2184F82D3106F07CFFC4F828B193
:103C8800524B37681B7853B1DFF86C81D8F80000C5
:103C980028B14F4B1B78013B012B41F211844D4B4E
:103CA8001B7873B1DFF85481D8F800304BB1336812
:103CB800424C02931A46D4F84431D31A632B01F2CA
:103CC800B281DFF83C8198F80030022B01F08A8637
:103CD8003C4F97F87430032B01F0CC833E4B1B7894
:103CE80073B13E4D2B685BB1344C06F0B7FCD4F889
:103CF8005031029044F61F62C31A934200F2308199
:103D0800374B1B78002B7DD1364B1B7843B12B4C9E
:103D1800D4F8A03203F5C333A0339B4581F03E822B
:103D2800314B1B78002B3FF41AAF244E2F4C304DEB
:103D380006F2C127206806F019FF00283FF40FAFEC
:103D4800206806F00BFF2B7880465A1E33B1206896
:103D58002A7006F00BFF0028F2D100E7032239464B
:103D6800781E30F084F996F8C03296F8C12286F8A9
:103D7800C38283F47F4383F0FF039B1A1FFA88F8FA
:103D88009BB2B8EB132FD5D196F8C222DBB29A4278
:103D9800D0D1781E1BF0A2F82B7818442870C9E7F8
:103DA800BB4A0020B85A002024650020EC5E0020A1
:103DB80044670020406700205E6200201C24002029
:103DC8003F0D030018000020F46600206062002008
:103DD8006862002070620020786200207C62002007
:103DE800E8620020F96200208262002088620020D8
:103DF8008C620020F066002028650020E86600201C
:103E0800AA310020484C2278A2B1484B9B7A53B182
:103E180006F024FC464B1B68C31AA3F57A73B3F566
:103E2800FA6F07D82278434B4349186806F06AFEB0
:103E380000232370414CD4F8983203F5C333A033E0
:103E48009B45FFF461AF3E4DC4F898B22B78002B28
:103E580041F035873B4D2B78002B41F08D8694F847
:103E68009C2239498D5CEA0701F1E787AF0701F128
:103E7800A787680702F12B802A0748D5334B344FB0
:103E88000B9312AA1146A3F13D0241F8202D002000
:103E9800A3F140020D4603F8400C039102231121BF
:103EA8005170937028463968FDF71AFA28467968E0
:103EB800FDF716FAFB89274903EBC3039B0005337B
:103EC80081FB0321DB17C3EBA101284689B2FDF76B
:103ED8001FFA3B8A03EB8303590089B22846FDF792
:103EE80017FA1D4B039D1B789B0743BF398901F5C2
:103EF8007A7189B24FF47A712846FDF709FA0A9B5C
:103F08003A7D591C0A9128461A7022F091FE134AEC
:103F180094F89C321178013393FBF1F201FB1233D0
:103F280084F89C32F0E600BF50620020305D00202B
:103F380018310020EC620020106200201C240020B0
:103F4800F0620020F1620020F4620020106200207C
:103F58006C6700206766666668670020F862002064
:103F680094F85631002B41F08A85DB4B1A6802F031
:103F78000803002B4AF60B4048F603414BF60F4363
:103F880049F6074704BF03460F4612F0040F4FF0E7
:103F9800190118BF1F46900684F8561103D547F437
:103FA800804747F02007CD4B5A79C7F30909002A03
:103FB80042F031819B79002B42F03D829846642083
:103FC8004FF0FF3A4FF0000C0A970B97ADF834C04A
:103FD800CDF83AC0CDF83EC0CDF842C0CDF830900B
:103FE800ADF83680ADF838A08DF846000AAF0FCF8F
:103FF800DFF800E384F805C0AEE80F0097E80F008B
:10400800AEE807002EF8023B71464FF0010C1B0C7E
:10401800FE271F20C82201F81E39A770A27184F854
:1040280007C0E07094F86601207180F0F10383EA1C
:104038000313DAB2130983F0E70343EA022383EA9E
:10404800C2031BB283EA0312D2B2C3F3072383EA83
:10405800121343EA022383EAC2031BB283F0C802A5
:1040680082EA0212D2B2C3F3072383EA121343EAA5
:10407800022383EAC2031BB283EA0C0787EA071705
:10408800FFB2C3F3072282EA171242EA072200EBC3
:104098000C0382EAC7070EEB0C0084F86631278010
:1040A80011F8013B7B4083EA0313DBB21A0982EA69
:1040B800172242EA032282EAC3031BB29FB281425B
:1040C8002780EDD183F07C0383EA0313DBB24FEA48
:1040D800131E8EEA172E8EEA032E8EEAC30E0FFAEF
:1040E8008EFE1FFA8EF9DFF810C2A4F800905FFA6E
:1040F8008EFE4FEA192984F8289084F827E00CF5F9
:10410800C77804F1220ADCF80000DCF80410DCF8B7
:104118000820DCF80C3047460FC70CF1100CD445CA
:10412800B846F0D1DCF8000038606D4F9CF80430D8
:1041380088F8043007F1270884F8B5E184F8B691C7
:1041480017F8011F286806F015FDB845F8D194F84E
:104158005731002B41F08E846249326809780A2071
:1041680084F85701002901F021865F4F012938881A
:10417800069042F257810229B7F802E002F0658002
:10418800B8880590032902F05D81F8880490042915
:1041980002F06E810529388902F065810629B7F891
:1041A8000A9002F05C810729B7F80C8002F054816C
:1041B800FB89039394F866110A920B4683F0300248
:1041C80082EA0212D2B217094849079387F07A07A0
:1041D80047EA02270988237187EAC202444FC1EBE4
:1041E800012187FB013A069B4FF0000C63F30F0C8B
:1041F800059B6EF31F4C4FF0000E63F30F0E049BEC
:10420800CDF82CC012B28A440027C91763F31F4E99
:10421800C1EB6A2A039BCDF830E082EA021160F311
:104228000F070020C9B268F30F00C2F3072269F331
:104238001F4782EA111263F31F404FF000090D97E0
:104248008DF83DA00E908DF83C9042EA01220DF1C8
:10425800280C82EAC107BCE80F003FB287F0C80803
:1042680088EA0818DFF88CE084F805905FFA88F887
:10427800C7F30727AEE80F0087EA181747EA0823AD
:104288009CE8030083EAC8031BB283F023024EF8BC
:10429800040B82EA0212D2B2C3F30723079F83EA10
:1042A8001213704643EA022383EAC20207F1010CA3
:1042B80020F814194FF023081621FE27C82384F884
:1042C80066C1228084F807800EF1020EA770E170A3
:1042D800A371114612E000BF6467002050670020F8
:1042E800AB25002014300020686100209061002078
:1042F80003082080242400201E24002010F8013BFD
:104308004B4083EA0313DBB21A0982EA112242EA1C
:10431800032282EAC3031BB299B270452180EDD112
:1043280083F0F40383EA0313DBB24FEA131E8EEA29
:10433800112E8EEA032E8EEAC30E0FFA8EFE1FFA96
:104348008EF8CA4FA4F800804FEA182C5FFA8EFE48
:1043580084F81EE084F81FC07968BA683868FB687A
:1043680007F5C778A8E80F0038697969BA6904F2CF
:104378008F17A8E8070004F2AD1884F8ADC184F8D7
:10438800ACE117F8011F286806F0F4FBB845F8D12E
:1043980094F85A31002B41F07783B54B1B681922EA
:1043A800990684F85A2140F1FC82B24BB24F1B782F
:1043B8009A0741F128873B7D042B8CBF4FF00308F7
:1043C8004FF0020806F04AF93B8A3A890A9003EB53
:1043D80083035B00ADF842304FF47A703B680C936E
:1043E800F98997F814E07B688DF8448000FB02F2A5
:1043F8004FF0000C0AA84FF0FF398DF845E0CDF8D2
:104408002CC0CDF83C900E920D93ADF8401080462C
:104418000390B8E80F00DFF870E2AEE80F0098E804
:104428000F00AEE807007246182122F81C39E17126
:1044380094F8661184F805C081F0780383EA0313C1
:10444800D8B2030983F0F60343EA002383EAC003E2
:104458001BB283EA0310C0B2C3F3072383EA101325
:1044680043EA002383EAC0031BB283F0C80080EA52
:10447800001C5FFA8CFCC3F3072080EA1C1040EA9A
:104488000C2080EACC0000B280F0180383EA031302
:10449800DBB2C0F3072080EA131040EA032080EA69
:1044A800C30301F101081E204FF0FE0C4FF0C809AC
:1044B800E0700EF1020E217184F86681238084F881
:1044C80002C084F80690184612F8011B414081EAA0
:1044D8000111C9B20B0983EA102343EA012383EAD5
:1044E800C10109B288B272452080EDD181F018016E
:1044F80081EA0111C9B20A0982EA102383EA012379
:1045080083EAC1031BB29AB2DFF860A12280DBB252
:10451800120A0592049384F8272084F82630D64698
:104528000AF5C77904F12208DEF80000DEF8041065
:10453800DEF80820DEF80C30CC46ACE80F000EF1AF
:10454800100EC645E146EFD1DEF80000CCF80000B9
:104558009DF81030DFF8348184F8B4319DF81430B8
:1045680084F8B531C14619F8011F286806F002FB26
:10457800424B4B45F7D106F071F8414B414AB3F92C
:104588000410B7F808E03B680B930A907B680C931B
:1045980082FB01274FF47A70C9174FF0000C00FB1B
:1045A8000EF0C1EBA701DDF80CE0ADF83CC0ADF8AA
:1045B8003EC0ADF840C0ADF842100D900E90BEE878
:1045C8000F00314F84F805C00FC79EE807004FF071
:1045D800210C87E807001C23C8224FF0FE0EE37069
:1045E80084F807C084F802E0A27194F8661121717A
:1045F80081F06A0383EA0313DAB2130983F0D5035F
:1046080043EA022383EAC2031BB283EA0312D2B24B
:10461800C3F3072383EA121343EA022383EAC2039C
:104628001BB283F0C80282EA0212D2B2C3F3072394
:1046380083EA121343EA022383EAC2031BB283EA22
:104648000C0282EA0210C0B2C3F3072282EA1012F7
:1046580042EA0022013182EAC0020C3784F866116E
:104668002280A7F11C01104612E000BF1E24002082
:1046780064670020686700206C670020D12500204F
:10468800486700206766666624240020AB25002062
:1046980011F8013B434083EA0313DBB21A0982EAAB
:1046A800102242EA032282EAC3031BB298B2B9423B
:1046B8002080EDD183F0680383EA0313DBB2190984
:1046C80081EA102282EA032282EAC3031BB29AB269
:1046D800DB4F2280DBB24FEA122C049384F824309B
:1046E80004F1220384F825C007F5C7790593FB6810
:1046F80038687968BA68CE46AEE80F00059B10376F
:104708009F42F146F3D13B88AEF800309DF8103057
:10471800CC4F84F8B231C14684F8B3C119F8011FEF
:10472800286806F027FA4F45F8D194F866C1C64ABA
:10473800C64F84F804C08CF0EB0383EA0313D9B2A4
:104748000B0983F0C50343EA012383EAC1031BB2C3
:1047580083EA0310C0B2C3F3072181EA101141EACA
:10476800002181EAC0010CCA09B281F0C80E8EEAA4
:104778000E1E5FFA8EFE4FF000090A92C1F3072160
:10478800039A0B93CDF8309081EA1E1343EA0E2367
:1047980007CA83EACE031BB283F0310E87E807000D
:1047A8008EEA0E1E5FFA8EFEC3F3072383EA1E13FA
:1047B80043EA0E2383EACE0394F808E0607AA17AEC
:1047C800E27A277B84F805901BB28EEA030E8EEA04
:1047D8000E1E5FFA8EFEC3F3072383EA1E1343EA15
:1047E8000E2383EACE031BB2584080EA0010C0B201
:1047F800C3F3072383EA101343EA002383EAC003C1
:104808001BB2594081EA0110C0B2C3F3072181EA03
:10481800101141EA002181EAC00109B24A4082EA46
:104828000212D2B2C1F3072383EA121343EA022326
:1048380083EAC2031BB25F4087EA0717FFB2C3F3DC
:10484800072383EA171343EA0723607BA17BE27BF4
:1048580094F810E094F8119083EAC7031BB258400B
:1048680080EA0010C0B2C3F3072383EA101343EAB7
:10487800002383EAC0031BB2594081EA0111C9B27F
:10488800C3F3072383EA111343EA012383EAC1032D
:104898001BB25A4082EA0212D2B2C3F3072383EA58
:1048A800121343EA022383EAC2031BB28EEA030E01
:1048B8008EEA0E1E5FFA8EFEC3F3072383EA1E13E9
:1048C80043EA0E2383EACE031BB289EA030989EA85
:1048D80009195FFA89F9C3F3072383EA191343EA2D
:1048E800092383EAC903A17CE27C594F1BB25940D2
:1048F80081EA0111C9B2C3F3072383EA111343EA1A
:10490800012383EAC1031BB25A4082EA0212D2B2DF
:10491800C3F3072383EA121343EA022383EAC20399
:104928001BB283F0270989EA0912D2B2C3F3072917
:1049380089EA121949EA022989EAC2090FFA89F9AA
:104948001FFA89F20CF101034FEA122E5FFA89F976
:1049580031204FF0FE0C0C2184F86631C8232280E8
:10496800E07184F802C0E170A37184F8149084F8AF
:1049780015E0DAF80410DAF80820DAF80C30DAF87A
:104988000000BAF810C00FC727F803CB84F8A3E1DA
:1049980084F8A29118F8011F286806F0EBF847453B
:1049A800F8D194F85EC1BCF1000F41F07880294B32
:1049B80094F866E1B3F90010B3F90220B3F90430B2
:1049C8009FED256A214F84F805C007EE103A336839
:1049D8000A938EF06A0383EA031306EE901AD9B29B
:1049E8000B0983F0D50343EA012383EAC1031BB211
:1049F80083EA03115242C9B207EE902AC3F3072390
:104A080083EA111343EA0123F8EEE77AF8EEE66A3F
:104A1800B8EEC77A83EAC1031BB267EE867A66EE00
:104A2800866A27EE067A002083F0C808CDED0C7A56
:104A3800CDED0B6A8DED0D7A0E900F900EE000BF54
:104A48001E240020CF250020104F00202424002001
:104A5800AC2500204867002088C3E43A109088EA13
:104A680008160DF12809F6B2C3F30728B9E80F00B4
:104A780088EA161848EA062888EAC6080FFA88F865
:104A88000FC788F01E0699E8070086EA0616F6B2F0
:104A9800C8F3072383EA161343EA062387E80700C7
:104AA80083EAC606C8214FF005084FF01E0CFE2306
:104AB8001C200EF10102A17184F85E8184F807C000
:104AC800A370E070A7F1100184F804E00C37268089
:104AD80084F8662111F8013B734083EA0313DBB2C3
:104AE8001A0982EA162242EA032282EAC3031BB2A7
:104AF8009EB2B9422680EDD183F0270383EA0313DF
:104B0800DBB24FEA131E8EEA162E8EEA032E8EEAC9
:104B1800C30E0FFA8EFE1FFA8EFCD94FA4F800C000
:104B28005FFA8EFE4FEA1C2C84F825C084F824E036
:104B380007F5C77804F1220938687968BA68FB680C
:104B480046460FC610374F45B046F5D1CD4E3B8887
:104B5800A8F8003006F1240784F8B2E184F8B3C15C
:104B680016F8011F286806F005F8B742F8D194F83E
:104B78005F81B8F1000F40F08C87C34B1B6805229A
:104B88009B0684F85F2141F10B81C04BDFEDC06AC1
:104B9800DA891B8907EE902A07EE103AF8EEE77AD1
:104BA800B8EE477A67EEA67A94F866C1B94BBA4A66
:104BB800B3F90410B2F90620B84EB948CDED0B7A16
:104BC8008CF0220383EA0313DFB23B0983F0590315
:104BD80043EA072383EAC703B2F5FA6F1BB2A8BFFB
:104BE8004FF4FA6283EA0317FFB2B2F57A7FC3F390
:104BF800072383EA1713B8BF4FF47A724FF0640E95
:104C080043EA0723A2F57A720EFB02F283EAC7078A
:104C180086FB02E680FB01E03FB2C917D217C2EB60
:104C2800A612C1EBA0034FF000090AA987F0C80635
:104C38008DED0C7AADF83A20ADF83830CDF82890E3
:104C4800CDF834908E4686EA0616F6B20391C7F37D
:104C58000727BEE80F0087EA161747EA062787EAFC
:104C6800C606904FDEF800E084F804C00FC736B2DD
:104C780086F04A0383EA0313DBB2C6F3072181EA0D
:104C880013113A4641EA03210CF1010C81EAC303EE
:104C9800142042F810E9FE264FF04A0E002184F84D
:104CA80066C14FF0C80CE0702380043784F807E031
:104CB800A670617184F806C0184612F8011B4140BD
:104CC80081EA0111C9B20B0983EA102343EA0123DF
:104CD80083EAC10109B288B2BA422080EDD181F0DD
:104CE800140181EA0111C9B24FEA111E8EEA102E91
:104CF8008EEA012E8EEAC10E0FFA8EFE1FFA8EF68C
:104D0800DFF87CA126804FEA162C5FFA8EFE84F825
:104D18001CE084F81DC0DAF80410DAF80000DAF8AC
:104D28000820DAF80C30BAF818900AF5C7770FC7D8
:104D3800DAF81000DAF8141003C704F28F16A7F88F
:104D48000090374684F8ABC184F8AAE104F2AB19A5
:104D580017F8011F286805F00DFFB945F8D1524B27
:104D6800524A1B781278013B12F00100DBB214BFE3
:104D7800C0214021172B03D84D4A134493F83080A3
:104D88004C4B1A8897071ABF002341F010010123E2
:104D980012F4027F18BF022312F0100F18BF062367
:104DA80012F0200F18BF1023002841F002824FF0A4
:104DB800030C94F866E10A938EF0460383EA031322
:104DC800DAB2130983F0920343EA022383EAC203A7
:104DD8001BB283EA0310C0B2C3F3072282EA10129F
:104DE80042EA002282EAC00212B282F0C80787EAC9
:104DF8000717FFB2C2F3072282EA171200238DF8C1
:104E08002FC0032042EA072C039A8DF82C808DF8D6
:104E18002D308DF82E108DF8300007CA8CEAC70C9B
:104E28000FFA8CFC1F4FE3718CEA0C1803C75FFA6A
:104E380088F8CCF3072C8CEA181C4CEA082181EA84
:104E4800C80894F808C03A700FFA88F88CEA080C79
:104E58008CEA0C1C5FFA8CFCC8F3072282EA1C124D
:104E680042EA0C22607AA17A94F80B80637182EA94
:104E7800CC0212B2504080EA001C5FFA8CFC1BE0A6
:104E88001E240020AB250020646700206C670020EA
:104E98000AD7233C4867002068610020D34D621080
:104EA800676666662424002074410020FC450020C3
:104EB800A442030892610020C2F3072080EA1C1074
:104EC80040EA0C2080EACC0000B2414081EA01119E
:104ED800C9B2C0F3072282EA111242EA012282EA29
:104EE800C10212B288EA020888EA08185FFA88F84C
:104EF800C2F3072282EA181242EA082294F80CC088
:104F0800607BA17B84F804E082EAC80212B28CEAD2
:104F1800020C8CEA0C1C5FFA8CFCC2F3072282EAB2
:104F28001C1242EA0C2282EACC0212B2504080EAF9
:104F38000010C0B2C2F3072282EA101242EA00222D
:104F480082EAC00212B2514081EA0111C9B2C2F329
:104F5800072282EA111242EA012282EAC102E17BB7
:104F680094F8108013B281EA030282EA0212D2B2E4
:104F7800C3F3072383EA121343EA022383EAC20333
:104F88001BB288EA030282EA0212D2B2C3F30723F1
:104F980083EA121343EA022383EAC2031BB283F0B3
:104FA800320282EA0212D2B2C3F3072383EA12134F
:104FB80043EA022383EAC2031BB29AB24FF0FE0C03
:104FC8000920C8210EF1010EDBB284F802C04FEAB5
:104FD800122CE070A17184F866E1228084F812C076
:104FE8006374DAF80000DAF80410DAF80820BAF87E
:104FF8000C9007F5C07EAEE8070007F5C8778EF875
:105008000280AEF8009084F8A0C184F89F3116F8A9
:10501800011F286805F0AEFDB742F8D1029BC4F81D
:105028005031FEF76DBEDFF824A27C4FDFF82092E6
:10503800412026F0D9FABAF9023087FB0320DB17A2
:10504800C3EBA00080B226F0B3FABAF9003087FBB0
:105058000320DB17C3EBA00080B226F0A9FABAF947
:10506800043087FB0320DB17C3EBA00080B226F0D7
:105078009FFA99F80010D8F8000005F07BFD94F825
:1050880048A11AF0010700F01085654B1B689A06C5
:1050980072D5644B644F1B789B0741F14B803B7D75
:1050A800042B8CBF4FF0030A4FF0020A472026F06A
:1050B8009BFA386826F048FA786826F045FAFB89A2
:1050C8005A4AD8F80000A2FB0323C3F34713194632
:1050D800039305F04FFD3A8999F80010039B64206B
:1050E8004B4000FB02F089F8003026F02DFA3F7D96
:1050F800D8F800004AEA8707FFB2394605F03AFDBA
:1051080099F80030D8F800005F40394689F80070F7
:1051180005F030FD94F848A1BAF1000F2CD1444FA6
:105128004F2026F061FA386826F00EFA786826F0E3
:105138000BFA504626F008FA0121D8F8000005F0CD
:1051480019FD384A99F800301778D8F8000007F0A8
:105158000107394683F0010389F8003005F00AFD9C
:1051680099F80030D8F800005F40394689F8007097
:1051780005F000FD94F848A1029B2E4AC4F844317A
:105188000AF10103DBB2A2FB0312D20802EB82028E
:10519800A3EB420384F84831FEF793BD94F8A43298
:1051A800254AC4F8A0B202EB8302926C42B312AD56
:1051B80004F2AB23214E45F8203D002104F2BD2323
:1051C80031800B9380211523A52784F8AA3228461D
:1051D80084F8A91284F8A872904728463188FCF709
:1051E800BDF80A9D164804F52A716D1A152DA8BF39
:1051F80015252A462CF08AFC124A94F8A432157018
:10520800114A013382FB0312A2EBE37202EB420262
:105218009B1A84F8A432FEF783BD00BF67666666F2
:1052280064670020686700206C6700201F85EB51C9
:10523800104F0020CDCCCCCCA4420308CC61002078
:10524800FC2E0020112F0020565555554867002088
:10525800EC660020C24AC34BD4F8141130681B888E
:1052680092F80BE0C04A401A4FF47A71DFB201FBA2
:105278000EF11B0A9777177588424FF00007D3770E
:1052880053759770177180F0F784B849DFF808C331
:105298000B688968B648B74F007897F814A08CFB5C
:1052A80003E8DB178CFB01EC4FEAE17EC3EBA801B6
:1052B80011770912CEEBAC0E5177F4214FEA2E2C60
:1052C80082F820E091764FF0010E302182F81BE041
:1052D80082F82210A84B82F821C04FF0750E782171
:1052E80082F823E082F82410820783F81AA040F19C
:1052F800BF84D7F800C0A14AD7F804E0A04882FBD1
:105308000C194FEAEC7182FB0E82C1EBA9514FEAEE
:10531800EE79C9EBA25200FB01C9029200FB02E040
:1053280009EB4909974A4FEA490982FB0982049225
:1053380000EB4000934A4000039082FB0008049A67
:105348009014029A0490F8893F8902EB820200EBDC
:10535800C00002EB820207F5FA770692BAF1050F50
:105368004FEA80021FFA87FA0398049F029201EB22
:1053780081014FEAE97201EB810105914FEAE07181
:10538800A7EB0200804F83F815A0024607FB129294
:10539800059F4FEAA84840B200EB8709A8EB010037
:1053A800794F0399804607FB1010069F77494FFAFB
:1053B80088F84FEADC7C4FEADE7E83F809C083F880
:1053C8000EE0DFF8D8C108EB870E029F81FB07814A
:1053D8004FEAE778BCF800700397C8EBA1116C4F4F
:1053E800029187FB021887FB00170299DFF8B0C10A
:1053F8001FFA89F91FFA8EFE4FEAE2724FEAE0704F
:10540800C2EB681883F80A90C0EB671283F80FE0C4
:105418004FEA19274FEA1E29C1F3072E0399BCF852
:105428000000DF7283F810904FEA222783F80C807F
:105438005A749DF80820DA714FEA282C4FEA1A2A84
:105448004FEA112934BF4FF032084FF033089DF866
:105458000C2083F80DC09F7483F816A083F808E029
:10546800DA7483F8149083F81B801877C4F810B1A5
:10547800FEF79CBBDFF82C91D9F8000005F066FB1D
:1054880000283EF42BACD9F80000012105F05AFBA6
:105498000222002387F8742088F80030FEF71EBC2B
:1054A80094F82C1194F82D31D8F800004A1C0133D7
:1054B80084F82C2184F82D3105F05CFBFEF7DEBB67
:1054C800344CDFF8E4904FF0000A0BE01B2B00F09F
:1054D8009F820D2B00F079814FF0010389F801308C
:1054E800D8F8000005F042FB00285FD0D8F800008B
:1054F80005F034FB83B27E2B32682AD099F801106C
:105508000029EDD194F82E21002ADFD07D2B00F060
:10551800648294F83CE1BEF1000F04D080F02003CF
:10552800DBB284F83C11511CC9B22244092984F821
:105538002E1182F8303100F044820829D0D8B4F80E
:105548003A21134403EB132303F0FF03A4F83A3181
:10555800C6E784F82EA184F82FA189F801A0BFE737
:105568006C460020644600209062002030650020D0
:10557800686700206C670020BC6200206BCA5F6B04
:10558800806967FF83DE1B4340420F00D34D6210E2
:105598001F85EB511C240020676666665C4F00205F
:1055A8005E4F0020383200201800002094F83D316A
:1055B80033B194F8313184F83D01302B00F0D785B0
:1055C80094F82F21BA4BBB49DFF818A3DFF81893DA
:1055D80002954FF0010E90464246002A00F05B8388
:1055E8003268D21B012A00F21F8294F83E21002A59
:1055F80040F0348294F83FC133F81C00F0B984F8C5
:105608003FE10A689506E7D59AF800209007E3D5A8
:10561800A94FAA49FA89029D4FF4F36303FB02F3E9
:1056280081FB0321DB17C3EB61114FF4036026F004
:1056380015F8002384F82F31FEF731BB0CF1010C6B
:105648005FFA8CFCB0F5E06F84F83FC100F09A80F7
:105658001BD8B0F5047F00F0498136D8B0F5887FB3
:1056680000F0D380B0F5007F00F0B880B0F5807FFF
:10567800B2D10A685207AFD50021029D25F0EEFF8E
:10568800002384F82F31FEF70ABBB0F5026F00F053
:105698005E816CD8B0F5E46F00F08480B0F5006FDF
:1056A80000F0DD80B0F5E26F96D1854B029DDA6B94
:1056B800998A642303FB02F393FBF1F125F0CEFFF3
:1056C800002384F82F31FEF7EABAB0F5826F00F0B4
:1056D8005581B0F5C06F00F02981B0F5806F7FF477
:1056E8007BAF94F84031029D0133DBB2032B00F20B
:1056F800AF8142F2107184F8403101FB03F1714B24
:105708001B88002B40F0A28101316F4B1B78DB070F
:105718006E4B1B8848BF0431DF0748BF0A31980722
:1057280048BF14311A0648BF2831DF0548BF283161
:10573800580748BF64311A0748BFC8319F0548BF9A
:1057480001F5C871980648BF01F57A71DA0648BFB5
:1057580001F5FA615F0648BF01F57A614FF4806090
:1057680025F07CFF002384F82F31FEF798BAB0F5B6
:10577800046F1CD0B0F5116F56D0B0F5036F7FF4ED
:105788002BAF3EE74E4B029D90469A6B998A642355
:1057980003FB02F393FBF1F125F060FF84F82F81FE
:1057A800FEF77DBA464B029D90461A6CEEE7484BD1
:1057B800029DB3F9041001EB81019046490025F0E0
:1057C8004DFF84F82F81FEF76ABA4FF0010184F883
:1057D8002E1184F83031A4F83A2181E699F8062090
:1057E800002A3FF4F9AE3B4B3B491B68029D81FB05
:1057F8000321DB17C3EBA1014FF4007025F02EFF46
:10580800002384F82F31FEF74ABA0A6852077FF559
:10581800E3AE00214FF48870029D25F01FFF00239E
:1058280084F82F31FEF73BBA99F80520002A3FF497
:10583800D3AE2A4A107800283FF4CEAE284B029DFA
:105848001B8803EB8303590091FBF0F14FF41160BF
:1058580025F004FF002384F82F31FEF720BA0A68E8
:1058680095067FF5B9AE9AF8002090077FF5B4AE9B
:105878001CF0010F029D104F104900F068847A68EF
:1058880082EAE273A3EBE27303EB5303A1FB033158
:10589800C908002AACBF41F0004141F040414FF433
:1058A800006025F0DBFE002384F82F31FEF7F7B9FE
:1058B800A4420308646700206C6700201F85EB5131
:1058C800F8660020C0610020FC450020926100209D
:1058D8004867002030650020676666667A460020C3
:1058E80064460020686700205067002099F805206A
:1058F800002A3FF471AEC64A107800283FF46CAE17
:10590800C44B029D5B7B002B00F08184C24B1B883B
:1059180093FBF0F000EB800041004FF4047025F099
:105928009DFE002384F82F31FEF7B9B999F80620B7
:10593800002A3FF451AEB94B029D99684FF4C060FC
:1059480025F08CFE002384F82F31FEF7A8B90D68E6
:10595800AD067FF541AE9AF800C01CF0020F3FF487
:105968003BAEAF4F029D3B896421904601FB03F19A
:1059780025F074FE84F82F81FEF791B90A68900625
:1059880040F10181A74BA64F1878397D029D00F0A0
:105998000203002B0CBF00234FF47A7340F6B83291
:1059A80008BF4FF4FA6210F0010F18BF13461944EC
:1059B8004FF4826025F052FE002384F82F31FEF761
:1059C8006EB9B4F83A21C2F1FF0293427FF484AD74
:1059D8004FF0010384F83D317EE54FF0010384F870
:1059E8003C317DE504F03AFE8F4B1B68C01A40F647
:1059F800B833984200F25881DFF858A29AF8043078
:105A08003A2B00F0C782002388F80030FEF766B909
:105A1800D8F8000005F0AAF800287FF45DAD4FF033
:105A2800010384F82F315BE50023029D84F82F31B0
:105A3800FEF735B9C4F8203184F81831DFF8188238
:105A480025F05AFE94F82431FEF7FDB802315CE6E1
:105A5800012384F8403142F2107150E67349029DE7
:105A6800062025F0E5FB002384F83E0184F82F3159
:105A7800FEF715B9013B84F85731FEF789BC013BA5
:105A880084F85631FEF763BB013B84F85A31FEF7C0
:105A980088BF08F1FF3884F85F81FFF7BFBA0CF1BF
:105AA800FF3C84F85EC1FFF762B8614B1B88D805DC
:105AB80013D4D90600F17B839A0600F1DA835806DD
:105AC80000F1DC83190700F1DB83DA0700F1EC83CE
